{
  "_format": "hh-sol-artifact-1",
  "contractName": "SubscriptionGateway",
  "sourceName": "contracts/Contract.sol",
  "abi": [
    {
      "inputs": [
        {
          "internalType": "address",
          "name": "_usdc",
          "type": "address"
        }
      ],
      "stateMutability": "nonpayable",
      "type": "constructor"
    },
    {
      "inputs": [
        {
          "internalType": "address",
          "name": "token",
          "type": "address"
        }
      ],
      "name": "SafeERC20FailedOperation",
      "type": "error"
    },
    {
      "anonymous": false,
      "inputs": [
        {
          "indexed": false,
          "internalType": "uint256",
          "name": "newFeeBps",
          "type": "uint256"
        }
      ],
      "name": "FeeUpdated",
      "type": "event"
    },
    {
      "anonymous": false,
      "inputs": [
        {
          "indexed": true,
          "internalType": "address",
          "name": "to",
          "type": "address"
        },
        {
          "indexed": false,
          "internalType": "uint256",
          "name": "amount",
          "type": "uint256"
        }
      ],
      "name": "FeesWithdrawn",
      "type": "event"
    },
    {
      "anonymous": false,
      "inputs": [
        {
          "indexed": true,
          "internalType": "address",
          "name": "newOwner",
          "type": "address"
        }
      ],
      "name": "OwnerUpdated",
      "type": "event"
    },
    {
      "anonymous": false,
      "inputs": [
        {
          "indexed": true,
          "internalType": "bytes32",
          "name": "planId",
          "type": "bytes32"
        },
        {
          "indexed": true,
          "internalType": "address",
          "name": "seller",
          "type": "address"
        },
        {
          "indexed": false,
          "internalType": "uint32",
          "name": "duration",
          "type": "uint32"
        },
        {
          "indexed": false,
          "internalType": "string",
          "name": "ipfsHash",
          "type": "string"
        }
      ],
      "name": "PlanCreated",
      "type": "event"
    },
    {
      "anonymous": false,
      "inputs": [
        {
          "indexed": true,
          "internalType": "bytes32",
          "name": "planId",
          "type": "bytes32"
        },
        {
          "indexed": false,
          "internalType": "bool",
          "name": "active",
          "type": "bool"
        }
      ],
      "name": "PlanStatusUpdated",
      "type": "event"
    },
    {
      "anonymous": false,
      "inputs": [
        {
          "indexed": true,
          "internalType": "bytes32",
          "name": "planId",
          "type": "bytes32"
        },
        {
          "indexed": false,
          "internalType": "uint32",
          "name": "duration",
          "type": "uint32"
        },
        {
          "indexed": false,
          "internalType": "string",
          "name": "ipfsHash",
          "type": "string"
        }
      ],
      "name": "PlanUpdated",
      "type": "event"
    },
    {
      "anonymous": false,
      "inputs": [
        {
          "indexed": true,
          "internalType": "address",
          "name": "subscriber",
          "type": "address"
        },
        {
          "indexed": true,
          "internalType": "address",
          "name": "seller",
          "type": "address"
        },
        {
          "indexed": true,
          "internalType": "bytes32",
          "name": "planId",
          "type": "bytes32"
        },
        {
          "indexed": false,
          "internalType": "uint256",
          "name": "tierId",
          "type": "uint256"
        },
        {
          "indexed": false,
          "internalType": "uint256",
          "name": "totalAmount",
          "type": "uint256"
        },
        {
          "indexed": false,
          "internalType": "uint256",
          "name": "feeAmount",
          "type": "uint256"
        },
        {
          "indexed": false,
          "internalType": "string",
          "name": "buyerData",
          "type": "string"
        },
        {
          "indexed": false,
          "internalType": "uint32",
          "name": "startTime",
          "type": "uint32"
        },
        {
          "indexed": false,
          "internalType": "uint32",
          "name": "endTime",
          "type": "uint32"
        }
      ],
      "name": "Subscribed",
      "type": "event"
    },
    {
      "anonymous": false,
      "inputs": [
        {
          "indexed": true,
          "internalType": "bytes32",
          "name": "planId",
          "type": "bytes32"
        },
        {
          "indexed": false,
          "internalType": "uint256",
          "name": "tierId",
          "type": "uint256"
        },
        {
          "indexed": false,
          "internalType": "uint256",
          "name": "price",
          "type": "uint256"
        },
        {
          "indexed": false,
          "internalType": "string",
          "name": "label",
          "type": "string"
        }
      ],
      "name": "TierAdded",
      "type": "event"
    },
    {
      "inputs": [],
      "name": "USDC",
      "outputs": [
        {
          "internalType": "contract IERC20",
          "name": "",
          "type": "address"
        }
      ],
      "stateMutability": "view",
      "type": "function"
    },
    {
      "inputs": [
        {
          "internalType": "bytes32",
          "name": "planId",
          "type": "bytes32"
        },
        {
          "internalType": "uint256",
          "name": "price",
          "type": "uint256"
        },
        {
          "internalType": "string",
          "name": "label",
          "type": "string"
        }
      ],
      "name": "addTierToPlan",
      "outputs": [],
      "stateMutability": "nonpayable",
      "type": "function"
    },
    {
      "inputs": [
        {
          "internalType": "uint32",
          "name": "duration",
          "type": "uint32"
        },
        {
          "internalType": "string",
          "name": "ipfsHash",
          "type": "string"
        },
        {
          "internalType": "uint256[]",
          "name": "prices",
          "type": "uint256[]"
        },
        {
          "internalType": "string[]",
          "name": "labels",
          "type": "string[]"
        }
      ],
      "name": "createPlan",
      "outputs": [
        {
          "internalType": "bytes32",
          "name": "planId",
          "type": "bytes32"
        }
      ],
      "stateMutability": "nonpayable",
      "type": "function"
    },
    {
      "inputs": [],
      "name": "feeBps",
      "outputs": [
        {
          "internalType": "uint256",
          "name": "",
          "type": "uint256"
        }
      ],
      "stateMutability": "view",
      "type": "function"
    },
    {
      "inputs": [
        {
          "internalType": "bytes32",
          "name": "planId",
          "type": "bytes32"
        },
        {
          "internalType": "uint256",
          "name": "tierId",
          "type": "uint256"
        }
      ],
      "name": "getTier",
      "outputs": [
        {
          "internalType": "uint256",
          "name": "price",
          "type": "uint256"
        },
        {
          "internalType": "string",
          "name": "label",
          "type": "string"
        },
        {
          "internalType": "bool",
          "name": "active",
          "type": "bool"
        }
      ],
      "stateMutability": "view",
      "type": "function"
    },
    {
      "inputs": [],
      "name": "lastSubTimestamp",
      "outputs": [
        {
          "internalType": "uint32",
          "name": "",
          "type": "uint32"
        }
      ],
      "stateMutability": "view",
      "type": "function"
    },
    {
      "inputs": [],
      "name": "owner",
      "outputs": [
        {
          "internalType": "address",
          "name": "",
          "type": "address"
        }
      ],
      "stateMutability": "view",
      "type": "function"
    },
    {
      "inputs": [],
      "name": "planNonce",
      "outputs": [
        {
          "internalType": "uint256",
          "name": "",
          "type": "uint256"
        }
      ],
      "stateMutability": "view",
      "type": "function"
    },
    {
      "inputs": [
        {
          "internalType": "bytes32",
          "name": "",
          "type": "bytes32"
        }
      ],
      "name": "plans",
      "outputs": [
        {
          "internalType": "address",
          "name": "seller",
          "type": "address"
        },
        {
          "internalType": "uint32",
          "name": "duration",
          "type": "uint32"
        },
        {
          "internalType": "string",
          "name": "ipfsHash",
          "type": "string"
        },
        {
          "internalType": "bool",
          "name": "active",
          "type": "bool"
        },
        {
          "internalType": "uint256",
          "name": "tierCount",
          "type": "uint256"
        }
      ],
      "stateMutability": "view",
      "type": "function"
    },
    {
      "inputs": [
        {
          "internalType": "uint256",
          "name": "_newFeeBps",
          "type": "uint256"
        }
      ],
      "name": "setFee",
      "outputs": [],
      "stateMutability": "nonpayable",
      "type": "function"
    },
    {
      "inputs": [
        {
          "internalType": "bytes32",
          "name": "planId",
          "type": "bytes32"
        },
        {
          "internalType": "bool",
          "name": "active",
          "type": "bool"
        }
      ],
      "name": "setPlanStatus",
      "outputs": [],
      "stateMutability": "nonpayable",
      "type": "function"
    },
    {
      "inputs": [
        {
          "internalType": "bytes32",
          "name": "planId",
          "type": "bytes32"
        },
        {
          "internalType": "uint256",
          "name": "tierId",
          "type": "uint256"
        },
        {
          "internalType": "string",
          "name": "buyerData",
          "type": "string"
        }
      ],
      "name": "subscribe",
      "outputs": [],
      "stateMutability": "nonpayable",
      "type": "function"
    },
    {
      "inputs": [
        {
          "internalType": "address",
          "name": "_newOwner",
          "type": "address"
        }
      ],
      "name": "transferOwnership",
      "outputs": [],
      "stateMutability": "nonpayable",
      "type": "function"
    },
    {
      "inputs": [
        {
          "internalType": "bytes32",
          "name": "planId",
          "type": "bytes32"
        },
        {
          "internalType": "uint32",
          "name": "duration",
          "type": "uint32"
        },
        {
          "internalType": "string",
          "name": "ipfsHash",
          "type": "string"
        }
      ],
      "name": "updatePlanMetadata",
      "outputs": [],
      "stateMutability": "nonpayable",
      "type": "function"
    },
    {
      "inputs": [
        {
          "internalType": "address",
          "name": "to",
          "type": "address"
        },
        {
          "internalType": "uint256",
          "name": "amount",
          "type": "uint256"
        }
      ],
      "name": "withdrawFees",
      "outputs": [],
      "stateMutability": "nonpayable",
      "type": "function"
    }
  ],
  "bytecode": "0x60a060405260fa60015534801561001557600080fd5b50604051612cbb380380612cbb83398181016040528101906100379190610183565b600073ffffffffffffffffffffffffffffffffffffffff168173ffffffffffffffffffffffffffffffffffffffff16036100a6576040517f08c379a000000000000000000000000000000000000000000000000000000000815260040161009d9061020d565b60405180910390fd5b8073ffffffffffffffffffffffffffffffffffffffff1660808173ffffffffffffffffffffffffffffffffffffffff1681525050336000806101000a81548173ffffffffffffffffffffffffffffffffffffffff021916908373ffffffffffffffffffffffffffffffffffffffff1602179055505061022d565b600080fd5b600073ffffffffffffffffffffffffffffffffffffffff82169050919050565b600061015082610125565b9050919050565b61016081610145565b811461016b57600080fd5b50565b60008151905061017d81610157565b92915050565b60006020828403121561019957610198610120565b5b60006101a78482850161016e565b91505092915050565b600082825260208201905092915050565b7f496e76616c696420555344430000000000000000000000000000000000000000600082015250565b60006101f7600c836101b0565b9150610202826101c1565b602082019050919050565b60006020820190508181036000830152610226816101ea565b9050919050565b608051612a57610264600039600081816108ee01528181610ac101528181610ba501528181610fa501526110170152612a576000f3fe608060405234801561001057600080fd5b50600436106100f55760003560e01c806389a3027111610097578063ba74bbc011610066578063ba74bbc014610264578063d8f2a7e214610280578063e425a3dd146102b2578063f2fde38b146102ce576100f5565b806389a30271146101d85780638da5cb5b146101f6578063aa4f265314610214578063ad3b1b4714610248576100f5565b806324a9d853116100d357806324a9d853146101525780634e20d4681461017057806369fe0e2d146101a0578063702137a5146101bc576100f5565b80630e889ecd146100fa578063151d2677146101185780631ecb21f514610136575b600080fd5b6101026102ea565b60405161010f91906115e6565b60405180910390f35b610120610300565b60405161012d919061161a565b60405180910390f35b610150600480360381019061014b91906116ad565b610306565b005b61015a610408565b604051610167919061161a565b60405180910390f35b61018a6004803603810190610185919061182a565b61040e565b6040516101979190611902565b60405180910390f35b6101ba60048036038101906101b59190611949565b6106df565b005b6101d660048036038101906101d19190611976565b6107f3565b005b6101e06108ec565b6040516101ed9190611a69565b60405180910390f35b6101fe610910565b60405161020b9190611aa5565b60405180910390f35b61022e60048036038101906102299190611ac0565b610934565b60405161023f959493929190611b8c565b60405180910390f35b610262600480360381019061025d9190611c12565b610a2f565b005b61027e60048036038101906102799190611c52565b610c3c565b005b61029a60048036038101906102959190611cc6565b610d5f565b6040516102a993929190611d06565b60405180910390f35b6102cc60048036038101906102c79190611976565b610e44565b005b6102e860048036038101906102e39190611d44565b611187565b005b600360009054906101000a900463ffffffff1681565b60025481565b60006004600084815260200190815260200160002090503373ffffffffffffffffffffffffffffffffffffffff168160000160009054906101000a900473ffffffffffffffffffffffffffffffffffffffff1673ffffffffffffffffffffffffffffffffffffffff16146103af576040517f08c379a00000000000000000000000000000000000000000000000000000000081526004016103a690611dbd565b60405180910390fd5b818160020160006101000a81548160ff021916908315150217905550827f9e33f49825d343bd46758ce9d2584d1f45de16738727dfda6b96c73022dc1d26836040516103fb9190611ddd565b60405180910390a2505050565b60015481565b6000808863ffffffff1611610458576040517f08c379a000000000000000000000000000000000000000000000000000000000815260040161044f90611e44565b60405180910390fd5b8282905085859050146104a0576040517f08c379a000000000000000000000000000000000000000000000000000000000815260040161049790611eb0565b60405180910390fd5b600085859050116104e6576040517f08c379a00000000000000000000000000000000000000000000000000000000081526004016104dd90611f1c565b60405180910390fd5b600260008154809291906104f990611f6b565b919050555033600254604051602001610513929190611fb3565b6040516020818303038152906040528051906020012090506000600460008381526020019081526020016000209050338160000160006101000a81548173ffffffffffffffffffffffffffffffffffffffff021916908373ffffffffffffffffffffffffffffffffffffffff160217905550888160000160146101000a81548163ffffffff021916908363ffffffff16021790555087878260010191826105bb929190612218565b5060018160020160006101000a81548160ff0219169083151502179055503373ffffffffffffffffffffffffffffffffffffffff16827fb34f2c833b5ea301f78b1eee800780c4d579a93ad217567360344b0b41217c358b8b8b60405161062493929190612324565b60405180910390a360005b868690508110156106d2576106c58388888481811061065157610650612356565b5b9050602002013587878581811061066b5761066a612356565b5b905060200281019061067d9190612394565b8080601f016020809104026020016040519081016040528093929190818152602001838380828437600081840152601f19601f8201169050808301925050505050505061130a565b808060010191505061062f565b5050979650505050505050565b60008054906101000a900473ffffffffffffffffffffffffffffffffffffffff1673ffffffffffffffffffffffffffffffffffffffff163373ffffffffffffffffffffffffffffffffffffffff161461076d576040517f08c379a000000000000000000000000000000000000000000000000000000000815260040161076490612443565b60405180910390fd5b6103e88111156107b2576040517f08c379a00000000000000000000000000000000000000000000000000000000081526004016107a9906124af565b60405180910390fd5b806001819055507f8c4d35e54a3f2ef1134138fd8ea3daee6a3c89e10d2665996babdf70261e2c76816040516107e8919061161a565b60405180910390a150565b3373ffffffffffffffffffffffffffffffffffffffff166004600086815260200190815260200160002060000160009054906101000a900473ffffffffffffffffffffffffffffffffffffffff1673ffffffffffffffffffffffffffffffffffffffff1614610897576040517f08c379a000000000000000000000000000000000000000000000000000000000815260040161088e90611dbd565b60405180910390fd5b6108e6848484848080601f016020809104026020016040519081016040528093929190818152602001838380828437600081840152601f19601f8201169050808301925050505050505061130a565b50505050565b7f000000000000000000000000000000000000000000000000000000000000000081565b60008054906101000a900473ffffffffffffffffffffffffffffffffffffffff1681565b60046020528060005260406000206000915090508060000160009054906101000a900473ffffffffffffffffffffffffffffffffffffffff16908060000160149054906101000a900463ffffffff169080600101805461099390612045565b80601f01602080910402602001604051908101604052809291908181526020018280546109bf90612045565b8015610a0c5780601f106109e157610100808354040283529160200191610a0c565b820191906000526020600020905b8154815290600101906020018083116109ef57829003601f168201915b5050505050908060020160009054906101000a900460ff16908060030154905085565b60008054906101000a900473ffffffffffffffffffffffffffffffffffffffff1673ffffffffffffffffffffffffffffffffffffffff163373ffffffffffffffffffffffffffffffffffffffff1614610abd576040517f08c379a0000000000000000000000000000000000000000000000000000000008152600401610ab490612443565b60405180910390fd5b60007f000000000000000000000000000000000000000000000000000000000000000073ffffffffffffffffffffffffffffffffffffffff166370a08231306040518263ffffffff1660e01b8152600401610b189190611aa5565b602060405180830381865afa158015610b35573d6000803e3d6000fd5b505050506040513d601f19601f82011682018060405250810190610b5991906124e4565b905080821115610b9e576040517f08c379a0000000000000000000000000000000000000000000000000000000008152600401610b959061255d565b60405180910390fd5b610be983837f000000000000000000000000000000000000000000000000000000000000000073ffffffffffffffffffffffffffffffffffffffff1661143a9092919063ffffffff16565b8273ffffffffffffffffffffffffffffffffffffffff167fc0819c13be868895eb93e40eaceb96de976442fa1d404e5c55f14bb65a8c489a83604051610c2f919061161a565b60405180910390a2505050565b60006004600086815260200190815260200160002090503373ffffffffffffffffffffffffffffffffffffffff168160000160009054906101000a900473ffffffffffffffffffffffffffffffffffffffff1673ffffffffffffffffffffffffffffffffffffffff1614610ce5576040517f08c379a0000000000000000000000000000000000000000000000000000000008152600401610cdc90611dbd565b60405180910390fd5b838160000160146101000a81548163ffffffff021916908363ffffffff1602179055508282826001019182610d1b929190612218565b50847fe8c0ad07d6cfc5650f75f83a926690880ad7e30d3fe4723cb0d4eb8c10750d1e858585604051610d5093929190612324565b60405180910390a25050505050565b6000606060008060046000878152602001908152602001600020600401600086815260200190815260200160002090508060000154816001018260020160009054906101000a900460ff16818054610db690612045565b80601f0160208091040260200160405190810160405280929190818152602001828054610de290612045565b8015610e2f5780601f10610e0457610100808354040283529160200191610e2f565b820191906000526020600020905b815481529060010190602001808311610e1257829003601f168201915b50505050509150935093509350509250925092565b60006004600086815260200190815260200160002090508060020160009054906101000a900460ff16610eac576040517f08c379a0000000000000000000000000000000000000000000000000000000008152600401610ea3906125c9565b60405180910390fd5b80600301548410610ef2576040517f08c379a0000000000000000000000000000000000000000000000000000000008152600401610ee990612635565b60405180910390fd5b600081600401600086815260200190815260200160002090508060020160009054906101000a900460ff16610f5c576040517f08c379a0000000000000000000000000000000000000000000000000000000008152600401610f53906126a1565b60405180910390fd5b600081600001549050600061271060015483610f7891906126c1565b610f829190612732565b905060008183610f929190612763565b90506000821115610feb57610fea3330847f000000000000000000000000000000000000000000000000000000000000000073ffffffffffffffffffffffffffffffffffffffff1661148d909392919063ffffffff16565b5b61105c338660000160009054906101000a900473ffffffffffffffffffffffffffffffffffffffff16837f000000000000000000000000000000000000000000000000000000000000000073ffffffffffffffffffffffffffffffffffffffff1661148d909392919063ffffffff16565b6000600360009054906101000a900463ffffffff1663ffffffff164263ffffffff161161109b57600360009054906101000a900463ffffffff1661109d565b425b905080600360006101000a81548163ffffffff021916908363ffffffff16021790555060008660000160149054906101000a900463ffffffff16826110e29190612797565b90508a8760000160009054906101000a900473ffffffffffffffffffffffffffffffffffffffff1673ffffffffffffffffffffffffffffffffffffffff163373ffffffffffffffffffffffffffffffffffffffff167f7632b064ab1a1eaeff56180f19650da03cdc0c2ebae8bab3a4617834f76e154e8d89898f8f8a8a60405161117297969594939291906127cf565b60405180910390a45050505050505050505050565b60008054906101000a900473ffffffffffffffffffffffffffffffffffffffff1673ffffffffffffffffffffffffffffffffffffffff163373ffffffffffffffffffffffffffffffffffffffff1614611215576040517f08c379a000000000000000000000000000000000000000000000000000000000815260040161120c90612443565b60405180910390fd5b600073ffffffffffffffffffffffffffffffffffffffff168173ffffffffffffffffffffffffffffffffffffffff1603611284576040517f08c379a000000000000000000000000000000000000000000000000000000000815260040161127b90612885565b60405180910390fd5b806000806101000a81548173ffffffffffffffffffffffffffffffffffffffff021916908373ffffffffffffffffffffffffffffffffffffffff1602179055508073ffffffffffffffffffffffffffffffffffffffff167f4ffd725fc4a22075e9ec71c59edf9c38cdeb588a91b24fc5b61388c5be41282b60405160405180910390a250565b6000821161134d576040517f08c379a0000000000000000000000000000000000000000000000000000000008152600401611344906128f1565b60405180910390fd5b6000600460008581526020019081526020016000209050600081600301600081548092919061137b90611f6b565b9190505590506040518060600160405280858152602001848152602001600115158152508260040160008381526020019081526020016000206000820151816000015560208201518160010190816113d39190612911565b5060408201518160020160006101000a81548160ff021916908315150217905550905050847f911af5eafa91d9991ad0738d8ea68de11acada969f6a46dd4715236d825ed37b82868660405161142b939291906129e3565b60405180910390a25050505050565b61144783838360016114e2565b61148857826040517f5274afe700000000000000000000000000000000000000000000000000000000815260040161147f9190611aa5565b60405180910390fd5b505050565b61149b84848484600161154c565b6114dc57836040517f5274afe70000000000000000000000000000000000000000000000000000000081526004016114d39190611aa5565b60405180910390fd5b50505050565b60008063a9059cbb60e01b90506040518160005260001960601c8616600452846024526020600060446000808b5af19250600160005114831661153e578383151615611531573d6000823e3d81fd5b6000873b113d1516831692505b806040525050949350505050565b6000806323b872dd60e01b90506040518160005260001960601c871660045260001960601c8616602452846044526020600060646000808c5af1925060016000511483166115b35783831516156115a6573d6000823e3d81fd5b6000883b113d1516831692505b806040526000606052505095945050505050565b600063ffffffff82169050919050565b6115e0816115c7565b82525050565b60006020820190506115fb60008301846115d7565b92915050565b6000819050919050565b61161481611601565b82525050565b600060208201905061162f600083018461160b565b92915050565b600080fd5b600080fd5b6000819050919050565b6116528161163f565b811461165d57600080fd5b50565b60008135905061166f81611649565b92915050565b60008115159050919050565b61168a81611675565b811461169557600080fd5b50565b6000813590506116a781611681565b92915050565b600080604083850312156116c4576116c3611635565b5b60006116d285828601611660565b92505060206116e385828601611698565b9150509250929050565b6116f6816115c7565b811461170157600080fd5b50565b600081359050611713816116ed565b92915050565b600080fd5b600080fd5b600080fd5b60008083601f84011261173e5761173d611719565b5b8235905067ffffffffffffffff81111561175b5761175a61171e565b5b60208301915083600182028301111561177757611776611723565b5b9250929050565b60008083601f84011261179457611793611719565b5b8235905067ffffffffffffffff8111156117b1576117b061171e565b5b6020830191508360208202830111156117cd576117cc611723565b5b9250929050565b60008083601f8401126117ea576117e9611719565b5b8235905067ffffffffffffffff8111156118075761180661171e565b5b60208301915083602082028301111561182357611822611723565b5b9250929050565b60008060008060008060006080888a03121561184957611848611635565b5b60006118578a828b01611704565b975050602088013567ffffffffffffffff8111156118785761187761163a565b5b6118848a828b01611728565b9650965050604088013567ffffffffffffffff8111156118a7576118a661163a565b5b6118b38a828b0161177e565b9450945050606088013567ffffffffffffffff8111156118d6576118d561163a565b5b6118e28a828b016117d4565b925092505092959891949750929550565b6118fc8161163f565b82525050565b600060208201905061191760008301846118f3565b92915050565b61192681611601565b811461193157600080fd5b50565b6000813590506119438161191d565b92915050565b60006020828403121561195f5761195e611635565b5b600061196d84828501611934565b91505092915050565b600080600080606085870312156119905761198f611635565b5b600061199e87828801611660565b94505060206119af87828801611934565b935050604085013567ffffffffffffffff8111156119d0576119cf61163a565b5b6119dc87828801611728565b925092505092959194509250565b600073ffffffffffffffffffffffffffffffffffffffff82169050919050565b6000819050919050565b6000611a2f611a2a611a25846119ea565b611a0a565b6119ea565b9050919050565b6000611a4182611a14565b9050919050565b6000611a5382611a36565b9050919050565b611a6381611a48565b82525050565b6000602082019050611a7e6000830184611a5a565b92915050565b6000611a8f826119ea565b9050919050565b611a9f81611a84565b82525050565b6000602082019050611aba6000830184611a96565b92915050565b600060208284031215611ad657611ad5611635565b5b6000611ae484828501611660565b91505092915050565b600081519050919050565b600082825260208201905092915050565b60005b83811015611b27578082015181840152602081019050611b0c565b60008484015250505050565b6000601f19601f8301169050919050565b6000611b4f82611aed565b611b598185611af8565b9350611b69818560208601611b09565b611b7281611b33565b840191505092915050565b611b8681611675565b82525050565b600060a082019050611ba16000830188611a96565b611bae60208301876115d7565b8181036040830152611bc08186611b44565b9050611bcf6060830185611b7d565b611bdc608083018461160b565b9695505050505050565b611bef81611a84565b8114611bfa57600080fd5b50565b600081359050611c0c81611be6565b92915050565b60008060408385031215611c2957611c28611635565b5b6000611c3785828601611bfd565b9250506020611c4885828601611934565b9150509250929050565b60008060008060608587031215611c6c57611c6b611635565b5b6000611c7a87828801611660565b9450506020611c8b87828801611704565b935050604085013567ffffffffffffffff811115611cac57611cab61163a565b5b611cb887828801611728565b925092505092959194509250565b60008060408385031215611cdd57611cdc611635565b5b6000611ceb85828601611660565b9250506020611cfc85828601611934565b9150509250929050565b6000606082019050611d1b600083018661160b565b8181036020830152611d2d8185611b44565b9050611d3c6040830184611b7d565b949350505050565b600060208284031215611d5a57611d59611635565b5b6000611d6884828501611bfd565b91505092915050565b7f4e6f74207468652073656c6c6572000000000000000000000000000000000000600082015250565b6000611da7600e83611af8565b9150611db282611d71565b602082019050919050565b60006020820190508181036000830152611dd681611d9a565b9050919050565b6000602082019050611df26000830184611b7d565b92915050565b7f4475726174696f6e206d757374206265203e2030000000000000000000000000600082015250565b6000611e2e601483611af8565b9150611e3982611df8565b602082019050919050565b60006020820190508181036000830152611e5d81611e21565b9050919050565b7f4d69736d61746368656420746965727300000000000000000000000000000000600082015250565b6000611e9a601083611af8565b9150611ea582611e64565b602082019050919050565b60006020820190508181036000830152611ec981611e8d565b9050919050565b7f4174206c65617374206f6e652074696572207265717569726564000000000000600082015250565b6000611f06601a83611af8565b9150611f1182611ed0565b602082019050919050565b60006020820190508181036000830152611f3581611ef9565b9050919050565b7f4e487b7100000000000000000000000000000000000000000000000000000000600052601160045260246000fd5b6000611f7682611601565b91507fffffffffffffffffffffffffffffffffffffffffffffffffffffffffffffffff8203611fa857611fa7611f3c565b5b600182019050919050565b6000604082019050611fc86000830185611a96565b611fd5602083018461160b565b9392505050565b600082905092915050565b7f4e487b7100000000000000000000000000000000000000000000000000000000600052604160045260246000fd5b7f4e487b7100000000000000000000000000000000000000000000000000000000600052602260045260246000fd5b6000600282049050600182168061205d57607f821691505b6020821081036120705761206f612016565b5b50919050565b60008190508160005260206000209050919050565b60006020601f8301049050919050565b600082821b905092915050565b6000600883026120d87fffffffffffffffffffffffffffffffffffffffffffffffffffffffffffffffff8261209b565b6120e2868361209b565b95508019841693508086168417925050509392505050565b600061211561211061210b84611601565b611a0a565b611601565b9050919050565b6000819050919050565b61212f836120fa565b61214361213b8261211c565b8484546120a8565b825550505050565b600090565b61215861214b565b612163818484612126565b505050565b5b818110156121875761217c600082612150565b600181019050612169565b5050565b601f8211156121cc5761219d81612076565b6121a68461208b565b810160208510156121b5578190505b6121c96121c18561208b565b830182612168565b50505b505050565b600082821c905092915050565b60006121ef600019846008026121d1565b1980831691505092915050565b600061220883836121de565b9150826002028217905092915050565b6122228383611fdc565b67ffffffffffffffff81111561223b5761223a611fe7565b5b6122458254612045565b61225082828561218b565b6000601f83116001811461227f576000841561226d578287013590505b61227785826121fc565b8655506122df565b601f19841661228d86612076565b60005b828110156122b557848901358255600182019150602085019450602081019050612290565b868310156122d257848901356122ce601f8916826121de565b8355505b6001600288020188555050505b50505050505050565b82818337600083830152505050565b60006123038385611af8565b93506123108385846122e8565b61231983611b33565b840190509392505050565b600060408201905061233960008301866115d7565b818103602083015261234c8184866122f7565b9050949350505050565b7f4e487b7100000000000000000000000000000000000000000000000000000000600052603260045260246000fd5b600080fd5b600080fd5b600080fd5b600080833560016020038436030381126123b1576123b0612385565b5b80840192508235915067ffffffffffffffff8211156123d3576123d261238a565b5b6020830192506001820236038313156123ef576123ee61238f565b5b509250929050565b7f4e6f74206f776e65720000000000000000000000000000000000000000000000600082015250565b600061242d600983611af8565b9150612438826123f7565b602082019050919050565b6000602082019050818103600083015261245c81612420565b9050919050565b7f46656520746f6f206869676820286d6178203130252900000000000000000000600082015250565b6000612499601683611af8565b91506124a482612463565b602082019050919050565b600060208201905081810360008301526124c88161248c565b9050919050565b6000815190506124de8161191d565b92915050565b6000602082840312156124fa576124f9611635565b5b6000612508848285016124cf565b91505092915050565b7f496e73756666696369656e742062616c616e6365000000000000000000000000600082015250565b6000612547601483611af8565b915061255282612511565b602082019050919050565b600060208201905081810360008301526125768161253a565b9050919050565b7f506c616e20697320696e61637469766500000000000000000000000000000000600082015250565b60006125b3601083611af8565b91506125be8261257d565b602082019050919050565b600060208201905081810360008301526125e2816125a6565b9050919050565b7f496e76616c696420746965720000000000000000000000000000000000000000600082015250565b600061261f600c83611af8565b915061262a826125e9565b602082019050919050565b6000602082019050818103600083015261264e81612612565b9050919050565b7f5469657220697320696e61637469766500000000000000000000000000000000600082015250565b600061268b601083611af8565b915061269682612655565b602082019050919050565b600060208201905081810360008301526126ba8161267e565b9050919050565b60006126cc82611601565b91506126d783611601565b92508282026126e581611601565b915082820484148315176126fc576126fb611f3c565b5b5092915050565b7f4e487b7100000000000000000000000000000000000000000000000000000000600052601260045260246000fd5b600061273d82611601565b915061274883611601565b92508261275857612757612703565b5b828204905092915050565b600061276e82611601565b915061277983611601565b925082820390508181111561279157612790611f3c565b5b92915050565b60006127a2826115c7565b91506127ad836115c7565b9250828201905063ffffffff8111156127c9576127c8611f3c565b5b92915050565b600060c0820190506127e4600083018a61160b565b6127f1602083018961160b565b6127fe604083018861160b565b81810360608301526128118186886122f7565b905061282060808301856115d7565b61282d60a08301846115d7565b98975050505050505050565b7f496e76616c6964206f776e657200000000000000000000000000000000000000600082015250565b600061286f600d83611af8565b915061287a82612839565b602082019050919050565b6000602082019050818103600083015261289e81612862565b9050919050565b7f5072696365206d757374206265203e2030000000000000000000000000000000600082015250565b60006128db601183611af8565b91506128e6826128a5565b602082019050919050565b6000602082019050818103600083015261290a816128ce565b9050919050565b61291a82611aed565b67ffffffffffffffff81111561293357612932611fe7565b5b61293d8254612045565b61294882828561218b565b600060209050601f83116001811461297b5760008415612969578287015190505b61297385826121fc565b8655506129db565b601f19841661298986612076565b60005b828110156129b15784890151825560018201915060208501945060208101905061298c565b868310156129ce57848901516129ca601f8916826121de565b8355505b6001600288020188555050505b505050505050565b60006060820190506129f8600083018661160b565b612a05602083018561160b565b8181036040830152612a178184611b44565b905094935050505056fea2646970667358221220bf0ad8293f3e5c8e4066e327cd01d2f845a0c82db5f383054826d0f894dfdbd164736f6c634300081c0033",
  "linkReferences": {},
  "deployedLinkReferences": {}
}